:020000041000EA
:1000000000B5324B212058609868022188439860DF
:10001000D860186158612E4B002199600221596106
:100020000121F02299502B49196001219960352056
:1000300000F044F80222904214D00621196600F024
:1000400034F8196E01211966002018661A6600F04E
:100050002CF8196E196E196E052000F02FF8012189
:100060000842F9D1002199601B49196000215960AB
:100070001A491B48016001219960EB211966A021F2
:10008000196600F012F800219960164914480160C1
:100090000121996001BC002800D000471248134993
:1000A000086003C880F30888084703B5996A0420EC
:1000B0000142FBD001200142F8D103BD02B5186610
:1000C0001866FFF7F2FF186E186E02BD00000240BE
:1000D000000000180000070000035F00212200005C
:1000E000F4000018222000A00001001008ED00E03C
:1000F00000000000000000000000000074B24E7A12
:1001000000200420F7010010C3010010C5010010F9
:10011000C1010010C1010010C1010010C101001097
:10012000C1010010C1010010C1010010C701001081
:10013000C1010010C1010010C9010010CB01001065
:10014000CD010010CD010010CD010010CD01001037
:10015000CD010010CD010010CD010010CD01001027
:10016000CD010010CD010010CD010010CD01001017
:10017000CD010010CD010010CD010010CD01001007
:10018000CD010010CD010010CD010010CD010010F7
:10019000CD010010CD010010CD010010CD010010E7
:1001A000CD010010CD010010CD010010CD010010D7
:1001B000CD010010CD010010CD010010CD010010C7
:1001C00000BE00BE00BE00BE00BE00BEEFF3058054
:1001D000103800BEF2EB88713C2600106826001033
:1001E0003802001090A31AE71E481F49086006C88D
:1001F00081F3088810471D480068002801D019487D
:10020000F3E70DA40ECC002902D000F012F8F9E7B4
:100210001749184A002000E001C19142FCD116495B
:100220008847164988471649884700BEFDE701C937
:1002300001C29A42FBD3704768260010C00000201C
:1002400040020020E82700100000042000000420E5
:10025000E827001000100420001004200000000017
:10026000704700000000000008ED00E0000000D032
:10027000400200204C060020691F001005040010F9
:10028000611F0010F8B5C04606480749091A8B10CF
:10029000C90FC91810B5491003D0044B002B00D06A
:1002A000984710BD400200204002002000000000DE
:1002B000054B10B5002B03D00449054800E000BFF2
:1002C000FFF7E2FF10BDC046000000000806002056
:1002D00008250010D02380221B0692019A6100227B
:1002E000024B002000211A707047C04649060020CA
:1002F00010B5164B84B01A78002A01D004B010BD96
:1003000001321A70D02380221B0612015A6180220A
:1003100052015A61802292015A6100F0A5FF040047
:1003200001F0ACF900230A4A12184B41802109065A
:100330008B4202D30122074B5242002102910191CC
:1003400005492000009100F093FFD7E749060020FF
:10035000C0C62D00FFFFFF7FB1030010D023802215
:1003600010B51B06520184B09A6100F07DFF0400B5
:1003700001F084F900230B4A12184B418021090631
:100380008B4202D30122084B52420021029101917B
:1003900006492000009100F06BFF0020002104B00E
:1003A00010BDC046C0C62D00FFFFFF7FD502001064
:1003B000D023802210B51B06120184B09A6100F090
:1003C00053FF040001F05AF900230B4A12184B4165
:1003D000802109068B4202D30122084B52420021A0
:1003E0000291019106492000009100F041FF002098
:1003F000002104B010BDC046C0C62D00FFFFFF7F26
:100400005D03001010B501F0AFFE0B2000F0F8F90D
:10041000D024802324061B010C20636200F0F0F935
:1004200080235B010D20636200F0EAF980239B01C9
:100430000520636200F0E4F9202300220121052059
:10044000A36200F061F9012204210520034B00F0B2
:100450006FF9642001F074F8FBE7C046F102001068
:10046000D0231B061B68974A9900F0B54E46894673
:1004700051585A4253412F2257464546DE465B4269
:1004800093439846904BE0B59C4683B0002701917A
:10049000E044002939D08D4B0F269B464246FB088D
:1004A00008339B009C5801233D009A460837002CD6
:1004B00022D031002140264218D05B464A469A5845
:1004C0002B00EA40203BDB171340524613420DD16C
:1004D000072208002A40920090400200EB087C4866
:1004E0003C339B001A502800019B98472409013592
:1004F000002C01D0BD42DCD3202FCFD103B0F0BC03
:10050000BB46B246A946A046F0BD704B00200F2264
:100510009B46C6083300414608339B005B580100E8
:100520000830002B00D1B2E017001F40BC461A4231
:100530000FD04C465D460F002C59203FCC40FF1792
:1005400027400124274204D16446614F3C36B6005F
:10055000F4511E0900D19AE017003740324213D0FF
:100560004C1CA4465D464C462C5965460E00EC409A
:100570001F3EF61726400124264205D1EE08544CB2
:100580003C363F01B60037511E0A00D17FE017000C
:100590003740324213D08C1CA4465D464C462C5941
:1005A00065460E00EC401E3EF6172640012426420A
:1005B00005D1EE08464C3C363F02B60037511E0BC3
:1005C00065D01700374032420DD0CC1CA4465D46A2
:1005D0004C462C5965460E00EC401D3EF617264051
:1005E0000124264257D01E0C51D014003440A4469A
:1005F00032420BD04C46354E0F1D3659FE40B246A6
:100600000E0054461C3EF60F26424BD01E0D3ED027
:1006100014003440A44632420BD04C462B4E4F1DA2
:100620003659FE40B2460E0054461B3EF60F264297
:1006300040D01E0E2BD014003440A446324212D0BB
:100640004C46224E8F1D3659FE40B2460E0054468F
:100650001A3EF60F264206D16446FE083C362706AF
:100660001B4CB60037511B0FCF1D002B0FD04C4633
:100670005D462E590124FE401939C91731402142E7
:1006800005D1F908124E3C311B0789008B512028F7
:1006900000D03EE732E7EE080D4C3C363F03B60093
:1006A0003751A0E76446FF083C37BE00084F2404DA
:1006B000F451ABE76446FE083C362705044CB6000F
:1006C0003751B6E7C0050020304101403006002018
:1006D00000400140094A83009A1810B5146840226E
:1006E000544080322240064CC000A44663441A6045
:1006F000044B9C466044416010BDC04604C00140AC
:1007000004D0014000400140074B8000C3181B6823
:10071000C90092000A435A400C231340034A9446EE
:10072000604403607047C04604C0014004D00140EB
:10073000F8B545469846D0231B06DE461C689B4606
:100740002B4B57469A46A3004E469946E0B5534672
:1007500016004A469B5807000D00002B34D0434634
:10076000002B3FD053464A4641469950D0231B06A2
:100770001C6863425C412F220720634293431D4A59
:1007800038409446FA081100800085403C311A48F0
:100790006344890092000D509B18002E0ED08022D9
:1007A00092019446634401210D201D6000F0AEF8D3
:1007B000F0BCBB46B246A946A046F8BDC022920195
:1007C000944663441D60F3E74346002BD1D0534663
:1007D00041460D2099500022084900F0D3F85B46AD
:1007E0001C68C6E70D20054900F0C6F9BAE7C04607
:1007F000C00500203041014000400140610400106C
:100800000123D0228340120693629361094A830038
:100810009A1811684022514080320A400649C000AF
:100820008C4663441A60054B9C4605236044436034
:100830007047C04604C0014004D001400040014060
:100840000FB400B5084883B001F0E0FC049B002B16
:1008500007D005A91800019101F068FB034801F0D9
:10086000D5FC012001F07AFB0825001018250010A6
:1008700070B5EFF3108C72B60D4D2B68002BFCD0C9
:10088000BFF35F8F0724CB08C618C05C01230C4060
:10089000A3401C000440034207D118433070BFF34B
:1008A0005F8F2C608CF3108870BD1000FFF7C8FFBD
:1008B0002C0100D0044A1078431CDBB2172B00D95E
:1008C000102313707047C046980100200021044B8C
:1008D000044ABFF35F8F02C39342FAD17047C04608
:1008E000000100D0800100D0054B064A1360064A83
:1008F000136053609360D3601361536193617047D9
:100900008080808000E400E004E400E01F231840C1
:100910001E3B8340002905D0C021044A49005350A2
:1009200013607047802201498B50FAE700E100E034
:1009300070B50D00EFF3108672B60F4A1368002BE6
:10094000FCD0BFF35F8F0D4B10309B6884001B59A8
:100950000B4A934203D09D4201D001F003F9074BAB
:100960009B681D51BFF35F8FBFF35F8F0022024B67
:100970001A6086F3108870BD240100D000ED00E0FD
:10098000CD010010F0B557464E46DE464546E0B56F
:1009900085B0060000911700EFF3108B72B66A4A1B
:1009A0001368002BFCD0BFF35F8F0025674B5D57AA
:1009B0009A46002D00DAA9E06B00654C01935B19A3
:1009C0009B009846A146C1444B4652469B7910363F
:1009D0001370604BB6009B6899590B1B2F2B33D9B2
:1009E0005D4B994200D0ACE0019B42469C465B4B7C
:1009F0006544AD0063535A4B0232A218043B9B1A64
:100A00001B05584A5B0D651913436B80564B01213A
:100A1000AB80FF23AB71009BEF71AB604B460B4388
:100A200019004C4B9B689951BFF35F8FBFF35F8FE9
:100A30000022454B1A608BF3108805B0F0BCBB4612
:100A4000B246A946A046F0BD01200A008243D379F0
:100A50008C46BB4231D84546130044491B1B5B41C1
:100A60005943090D3D4B63533D4B02356519043B1A
:100A70005B1B1B053B4D5B0D2B43AA464D466B8014
:100A80000425AC465546E044131F44441B1B1B057C
:100A90005B0D1D434B46997100999D8099604946B5
:100AA000DF71334B01431360BBE75800C01880006F
:100AB0002018C179B9422FD902000623D356002B42
:100AC000F3DA02932B4B61460393131D9A460423DA
:100AD0005B429C46E14450464B461B1A1B055B0D8E
:100AE0009C46204B9571984663464046034393804D
:100AF000019B5A199200039BA418A380029B1C4AD5
:100B0000A371009B2260E771A3608AE701F02AF8D5
:100B1000002553465D574FE7908802934005131D0B
:100B20009A46031561469C464046D44463460430C9
:100B30002018181AE0230005400D1B0218430390EB
:100B4000C5E701F00FF84FE7240100D04806002068
:100B50009C01002000ED00E0CD01001000A1FFFF8E
:100B6000CC01002000E0FFFF01BDFFFFAAAA0000AA
:100B70000148804701BD0000F0B5DE4657464E46AD
:100B80004546E0B50C0083B0EFF3108872B6634AB7
:100B90001368002BFCD0BFF35F8F614B61499A68EB
:100BA000030010339F00D55900938D4243D0A542D6
:100BB00054D05D4EAA1B2F2A3DD85C4B9C461B6827
:100BC0009A4601231A0099468240534613401F2239
:100BD00001934B46024093409A468022634650461A
:100BE0009850BFF35F8FEFF305839B46002B37D000
:100BF000009B5B4501D000F0B5FF2A004B469A43AD
:100C00009068844208D177E04B005B189B00F31892
:100C10009868844236D01A00062151560029F3DA2A
:100C2000844255D0019B002B27D0C02251463F4B18
:100C30005200995019603A4B9B68DD51BFF35F8FAA
:100C4000BFF35F8F0022354B1A6088F3108803B022
:100C5000F0BCBB46B246A946A046F0BD0D00EAE78F
:100C60002A004B469A4390688442D5D106201056FC
:100C7000130000280ADA0D0032E0802351462B4A87
:100C8000D150D8E706201856002822DB4200111860
:100C9000890074188946A1689960E179D9710621A3
:100CA00061569971002925DBA488F11A6405241581
:100CB0004C440919E0240905490D24022143998077
:100CC00013181B4A9B001178F31899711070A9E74B
:100CD00013005946002914D1FF31917115499180B3
:100CE00013490A789A71144A9B1B5B415A43120DAF
:100CF0000A7097E71149E2E7062010561300002812
:100D0000C4DA0F4A0F49D21A083A5002400D014383
:100D100099800D4952080A43DA8083E7240100D004
:100D200000ED00E0CD0100109C01002000E100E09A
:100D30004806002001BDFFFFAAAA000001BD000077
:100D4000D601002000F0FFFF00F8FFFF70B501247E
:100D50000443EFF30581EFF3108C72B6214A136858
:100D6000002BFCD0BFF35F8F1F4B05001F4AED1A0D
:100D70006D416A43120D1E4D8900AE6852B276581D
:100D8000A6421CD00621595691421CD01221595618
:100D9000914222D01E215956914220D02A215956E3
:100DA0000324914210D0134B19781A708171BFF34C
:100DB0005F8F00220B4B1A608CF3108870BDAB68FC
:100DC0000D4C5C50EFE700246100091989005B18A5
:100DD000FF21997109499980E5E70124F4E702248C
:100DE000F2E7C046240100D09C010020AAAA00001E
:100DF00000ED00E048060020CD01001001BDFFFF1E
:100E0000024B9C46614489000160704740000034F9
:100E100070B5114C114DAC420FD2FF262368002B48
:100E20000CD0FFF747FD01002000FFF7E9FFA68087
:100E3000BFF35F8F0834AC42F0D370BDFFF73AFDCB
:100E400001002000FFF7DCFF2671BFF35F8F08343D
:100E5000AC42E3D3F1E7C046380200204002002054
:100E60000A4B1968EFF3108072B60A68002AFCD0AA
:100E7000BFF35F8F1B68BFF35F8F00221A6080F3A0
:100E8000108840BF002000217047C0463C0600206B
:100E9000F0B5DE4657464E464546E0B583B0EFF323
:100EA000058203231340B54A990052580091904699
:100EB00001229A40B24B93461A60B24B01932EE046
:100EC00043469B881BB2002B00DB99E043469B798D
:100ED000002B00D0DDE0434608241C5F002C00DA24
:100EE00006E143465A6963001B19DB00D3189D686D
:100EF000DC686B1C00D107E1A34B00999C46614460
:100F00009A6A0B69A81A9B1A984200D20D619E48F2
:100F100000F0ACFB8C4200DDEAE000D126E15B464C
:100F200099484363434608229B5E9946002BC7DBE2
:100F3000424652695B0092464B44DB009A4453465A
:100F40009E68DF6800F092FB8F42B9DC00D100E1BF
:100F5000002F00DAE1E05246534654691B69019ABA
:100F6000934200D1D4E0414652460820085E5288A0
:100F7000000421001043984704000D0023002B4378
:100F800000D1CAE0002D00DBE7E030003900001B93
:100F9000A94153469860D96000229A5E002A8FDBEF
:100FA00043465D6953009C18E4002C19A768E46867
:100FB0008C4200DD84E702D1874200D980E74646B3
:100FC000328108360DE08C4200D1D3E01E000023B0
:100FD000F25E002A0ADB53009C18E4002C19A76873
:100FE000E4689B18DB00EB188C42ECDD53461A805A
:100FF0004B46338043469B881BB2002B00DA65E7E3
:1010000043461A69EFF3108172B61368002BFCD0C7
:10101000BFF35F8F43469E88012342465B42938025
:1010200036B21369BFF35F8F00221A6081F3108814
:10103000002E00DA4AE743465D69083342469C4683
:101040007700BF19FF00EF19BB6860469846082378
:10105000D15E9246FC68002907DA0EE0A2424FD02A
:1010600018000023C15E002906DB4B005B18DB0083
:10107000EB18DA68A242F1DD524606800023FE5EDC
:101080003980002EDCDA904643469B79002B00D154
:1010900021E7002342469371434646460821595EA4
:1010A00008364B1C24D047468946556902E00600A5
:1010B0004B1C18D04B005B18DB00E8180A008C466C
:1010C000E95E43881BB2002BF1DA01235B42DC1797
:1010D0008360C4604A4503D031803B8903803A81F4
:1010E000E1464B1CE6D14C46B846002C00DBF8E646
:1010F00040BF03B0F0BCBB46B246A946A046F0BD17
:101100009A684245ACD9B7E7631C00D0F4E6FEE626
:10111000200023699847002825D1534642461B8862
:1011200013811269EFF3108372B611680029FCD0A5
:10113000BFF35F8F4246514652880A804246494675
:1011400051801269BFF35F8F0021116083F3108813
:10115000B6E6864200D8FBE6B2E60B4800F086FA17
:101160000019694115E76568246807E7854200D8DA
:10117000D5E6BDE7874200D828E737E720060020FC
:101180003C700540910E00100040054070B52E4C9B
:101190002569002D04D00A212C48FFF731FE70BDCF
:1011A0002B4E0321300000F057FAE660FFF782FB78
:1011B000284B03229C46D02322701B061B6801216A
:1011C0006370254B6044A3600F23800020610220E0
:1011D000638063694942A1801980023119864731D1
:1011E0001D83585218315A5275325C39995218324F
:1011F0000131995218320131995218320131995204
:10120000083518329D520231183299521832013184
:1012100099521832013199521832013199521832CB
:10122000013199521832013199520C4B0C49DC6052
:1012300001303562FFF77CFB01210320FFF766FBDD
:10124000084B1D60A7E7C046E40100203C060020D3
:101250000040054040000034FFFF10002006002041
:10126000910E00103860054000487047E4010020EE
:10127000F8B51F0008AB1B7804001600002B08D13E
:1012800000F0FCF932003B00121A8B41002B00DA0F
:1012900053E02269EFF3108072B61368002BFCD084
:1012A000BFF35F8F0223E15E63694A005218D200E8
:1012B0009B18002937DB1A8862802269BFF35F8F91
:1012C0000025156080F31088069A9E60DF601A6121
:1012D000079A5A615A8801325204520C101C002A93
:1012E0001FD082B25880080410432669EFF310879C
:1012F00072B63268002AFCD0BFF35F8FA2881A80D2
:10130000A1802369BFF35F8F00221A6087F31088E2
:101310000B4923788C4601329A40E36863441A6093
:10132000F8BD0120DDE72369BFF35F8F00221A605B
:1013300080F3108801204042F2E70020F0E7C04629
:101340003C20000070B501000469EFF3108C72B608
:1013500020680028FCD0BFF35F8F02200D5E4C692F
:1013600068004019C0002418002D37DB2088488011
:101370000869BFF35F8F002606608CF31088E36076
:1013800063880498013320615B0405985B0CA260BC
:1013900060611A1C002B1FD093B22804628018438E
:1013A0000A69EFF3108C72B61368002BFCD0BFF300
:1013B0005F8F8B8823808D800B69BFF35F8F002246
:1013C0001A608CF310880B7801329A40CB68084978
:1013D0008C4663441A6070BD0122DDE70B69BFF3E0
:1013E0005F8F00221A608CF3108801204042F2E7E0
:1013F0003C20000010B543890A1493421ADD5300C3
:101400009B184269DB00D3180469EFF3108C72B6A5
:101410002268002AFCD0BFF35F8F5A88090494B277
:10142000090C8A4208D00369BFF35F8F00221A605B
:101430008CF31088002010BD8022120214435C80BF
:10144000012302698371BFF35F8F002111608CF368
:101450001088044902788C469340C2680120624497
:101460001360E8E73C200000F0B504000D000626FC
:101470007642F717C64636196F4100B582B08F42E3
:1014800014D811D000F0FAF832003B00121A8B4148
:10149000002B17DC002B47D02000290000F02CF98E
:1014A00002B080BCB846F0BD8642EBD900220023D2
:1014B00016001F0000F0E2F832003B00121A8B41C8
:1014C000002BE7DD00F0DAF832003B00121A8B4106
:1014D000002B0ADB00230193154B320000931548C3
:1014E0003B00FFF72FFF0028D6DB00239C46B046C9
:1014F000114A124E736A9F4204D8B16A8845CBD90B
:101500009F42C9D11168EFF3108072B60B68002BAF
:10151000FCD0BFF35F8F1368BFF35F8F6146196024
:1015200080F3108820BFE5E7002AB5D0CAE7C0469F
:10153000610E0010E40100203C0600200040054040
:1015400070B5060000F09AF8FA2204000D0000239E
:1015500030000021920000F071FC802300196941E5
:101560001B06994202D3012002494042FFF77CFF4B
:1015700070BDC046FFFFFF7FF0B5CE46474680B541
:1015800004000D0083B0EFF305878846002F3ED19D
:101590002E4EA1463378F06804339B00816A1B58B5
:1015A000601A5B1A98420ED320BF294900204B6A6B
:1015B000AB4203D38A6A0130944231D803B0C0BC35
:1015C000B946B046F0BD00F059F822002B00121ABF
:1015D0008B41002B2FDB1F4B2200009330002B0090
:1015E0000197FFF7AFFE011E25DD194B5A6AAA428B
:1015F0001BD220BF3000FFF7FDFE154A0020536AC2
:101600004345DBD3926A01309145D7D908E01049B0
:1016100000204B6AAB42D1D38A6A0130A242CDD2BC
:101620005B1B5A1E9341D8B2C8E79B6A9C42E1D922
:10163000AA42DFD1DDE7064A0020536A4345BDD305
:10164000926A01209145B9D9EAE7C046E401002039
:1016500000400540610E001010B5024A0248FFF735
:1016600007F910BD1C250010D00500200300416AB9
:101670000A00986A596A8A42FAD17047034B596A3C
:101680000A00986A596A9142FAD1704700400540B1
:1016900070B504000D00174A536A1900966A536A20
:1016A0008B42FAD13000190024184D41AB4216D8B4
:1016B00013D0104A2B00526A954203D90D494A6A49
:1016C0009A42FCD39A4207D10A4A02E0516A9942EF
:1016D00002D1916AA142F9D370BDA642E9D9054B66
:1016E0005B6A1C005A1CEFD0012301246442E517F9
:1016F0005B42E3E700400540064A536A9942FCD842
:1017000007D1044B02E05A6A914202D19A6A82429E
:10171000F9D3704700400540F8B5040006200D00DD
:1017200000F078F9002844D0374B3849E3185A1EA6
:1017300093418022120494465B429B0D344A9B05E0
:1017400063441360334A136018000A689043FBD166
:101750002D4B314AE31859424B4180215B0049002F
:101760000620995200F056F92900C00000F0D8FA7E
:101770000130C3091ED1402701226262A362266B99
:10178000F30722D4E36A254B0620E51800232B60DB
:10179000266300F03FF93900800000F0C1FA7023A1
:1017A000E26A5A400E3313402B601D4B2363032320
:1017B000A364F8BD1B4A93421ED900231A4A1B4F4B
:1017C0006262A362266BF307DCD5194B144AE31857
:1017D0001A60656AA36A0620AD01ED1800F01AF9D7
:1017E000144900F09DFAAD020100280000F098FABB
:1017F0000021FFF74DFFC5E74006800E9F011A004C
:101800003F180300B9E7C0460080FCBF08C0004095
:1018100000E0004000F00040400600202C100000D6
:1018200001030000FEFF0000FFFF0000C0FF3F00BB
:10183000303000004E0E0000F8B5DE464E465746EA
:101840004546E0B58B4605000A991800160000F0E1
:1018500067FA0A9B6C001F02324B64199C46A40075
:101860006444636881469F4200D967602B1FDBB2E6
:101870009846012B30D9C02380229B01E318120126
:101880001A60294BAD0059599A4600291BD17301A2
:10189000E026226853401E40802342465B01E31845
:1018A0001E60012A30D9802380229B01E318120197
:1018B0001A6053464A4667605A51F0BCBB46B2466E
:1018C000A946A046F8BD586900F02AFA0130430045
:1018D0001B18033BFDD2DAE75B46012BCBD1C023BB
:1018E00003229B01E3181A60023AA3681A42FCD053
:1018F0007301E0262268AD0053401E4080230A4A4F
:101900005B019246E3181E605A462168514003224B
:101910000A401A6001225B469A40A3681A42FCD032
:10192000C1E7C04600800040D4050020F0B546461F
:101930004F46D646C0B51F00344B44009C46241881
:10194000A4006444636888461600FF2B02D88023F5
:101950005B006360031FDBB29A46012B30D9C023C2
:1019600080229B01E31812011A60294B8500595906
:10197000994600291BD17301E026226853401E407E
:10198000802352465B01E3181E60012A30D9802370
:1019900080229B01E31812011A6080235B006360C0
:1019A0004B465F51E0BCBA46B146A846F0BD586907
:1019B00000F0B6F9013043001B18033BFDD2DAE713
:1019C0004346012BCBD1C02303229B01E3181A60AD
:1019D000023AA3681A42FCD07301E026226885000F
:1019E00053401E4080230A4A5B019146E3181E6063
:1019F00042462168514003220A401A6001234246B0
:101A00009340A2681342FCD0C1E7C046008000406A
:101A1000D4050020014B8000C0587047D405002039
:101A2000F8B5040021481E0017000D0000F078F9F9
:101A30000100380000F074F9069B36041B031E43B6
:101A40002368002B20DB1A4B1A49E3185A1E9341D6
:101A50008022920194465B421B0B174A1B0363448E
:101A60001360164A13601F000A689743FBD1144B9A
:101A70002560E2182123A06013602368002BFCDAA4
:101A80000823E6601360F8BD3F2322681340AB4291
:101A9000D9D1A3681B051B0D8342D4D1EE22E36884
:101AA000D2021340B342CED1EDE7C046001BB700CF
:101AB0000040FDBF08C0004000E0004000F00040D2
:101AC000043000008023024A9B000B43D36270471E
:101AD00000800540142310B50100188804331B88CA
:101AE000984710BD162310B50100188802331B88D3
:101AF000984710BDF8B54746CE4680B50F1E19D0A1
:101B000014239946043304000025012698464B46C9
:101B10001888434621681B88984701C4431E984192
:101B2000013540420640AF42F1D13000C0BCB94659
:101B3000B046F8BD0126F8E7AA23064A1B01136048
:101B40002F230549D360054B19605368002BFCDA3D
:101B50007047C0460040024000B0FA0000600240FA
:101B60007047C04610B50148FEF76AFE40250010D8
:101B700070B5074D074EB54209D20024013E761BD1
:101B8000B60808CD984723000134B342F9D170BD9F
:101B9000C824001004250010054B064A06491A60A7
:101BA000064A074B1A6010000B689843FBD1704738
:101BB00000E00040BFCDFBFE08C00040FE7F3C00BF
:101BC00000F00040044BDB6C002B03D18022034B60
:101BD000D2021A607047C046000011504C201150CC
:101BE000044A054B1A60054A1368DB018033FBD1B8
:101BF0007047C046FFFFFF0100F0004008C00040F2
:101C00004022034B9A675A671A67DA667047C046E4
:101C100000F0014010B5FEF759FE10BD70B5044D3F
:101C2000044CA968C022200000F072F9AC6070BDBD
:101C300000ED00E000000020002310B5294C82B028
:101C4000A367FFF779FF0122274B1A60636C012B12
:101C5000FCD10322254B1A60224A936B012BFCD145
:101C6000013300930121224A22480433FFF7D8FEB2
:101C7000052301210093204A2048FFF7D1FE0022CE
:101C8000022104201E4BFFF751FE002201210520F6
:101C90001C4BFFF74BFE0022002107201A4BFFF7D9
:101CA00045FE002200210820174BFFF73FFE80234E
:101CB000DB000093002200210920134BFFF7BCFD3D
:101CC0000022104B00210620FFF730FE0420FFF712
:101CD000A1FE0E4900F024F801000020FFF7F2FEFB
:101CE00002B010BD008000403CB0004030B0004069
:101CF000002F685900800240008C864700C00240D7
:101D0000001BB70040597307006CDC0240420F0013
:101D100001480421014B184700020020F51A001069
:101D2000114A936F9B0813D210665166002905D0A3
:101D3000FFE7FFE7FFE7516F106F704704B500281A
:101D400001D00020C04300F0AFFB002104BDC0461D
:101D5000F0B5146E556E576F166FFFF7E5FF1466FA
:101D6000556657671667F0BD000000D0132370B5A5
:101D70001D78012D19D014DD1F48FFF7B3FE0600B2
:101D80001E48FFF7AFFE1E4C80223100200000F0FD
:101D9000BFF8022D2DD01B48FFF79CFE1A4B186090
:101DA00070BD1A4B164CA364F5E7184B144C236016
:101DB0006360A360E36023616361A361E361236205
:101DC0006362A362E36223636363A363E3632364E5
:101DD0006364A364E36423656365A365E3652366C5
:101DE0006366A366E36623676367A367E367A36429
:101DF000D1E7064BA364CEE75344000053460000EE
:101E0000C00300204C33000038060020111E0010D3
:101E100007B5604601880A0A0230DF2AFAD1C9B242
:101E2000820804D3028840880004104300E0006860
:101E3000014A5050039007BDC00300205143434363
:101E4000C9188C46110C83B24B4310B4040C614387
:101E500092B280B2504362431C041B0C001910BCA8
:101E600059411304120CC0185141614470470000DD
:101E7000132310B512481C78FFF734FE0100012C23
:101E80000AD003DD80220F4800F042F80E48FFF729
:101E900021FE0E4B186010BD0A4C5422200000F0A9
:101EA00037F80B4B6365A365E36523666366A3663A
:101EB000E36623676367A367E3672362E361E5E79C
:101EC00053460000C00400204C33000038060020B8
:101ED000D51E001007B5604601880A0A0230DF2AC5
:101EE000FAD1C9B2820804D30288408800041043A2
:101EF00000E00068014A5050039007BDC004002074
:101F000001480421014B184710020020F51A001067
:101F1000014B5B68184700001002002010B5002834
:101F200000D110BD00F026F9FBE7C04610B5094A04
:101F30000300146884B0002C08D0012200910648E8
:101F4000524203A9A047012004B010BD00F05EF981
:101F50000020F9E7040600201D1F001000BEFDE769
:101F600010B5FFF7FBFFC04670B5FFF701FE074D48
:101F7000074EB54209D20024013E761BB60808CDB3
:101F8000984723000134B342F9D170BD04250010F5
:101F900008250010030010B5080011001B689847C1
:101FA00010BDC046F0B5C64600B5437D07000D0024
:101FB0001600002B38D0002A2EDD00216A1E904624
:101FC0006A5C037D4C1C00200A2A0CD0A64216D065
:101FD00043461B5D21000D3B5A4253416A5CDBB214
:101FE0004C1C0A2AF2D1002BF0D1884217DB0221C7
:101FF00010483B689847A64207D02000E8E7864291
:1020000003DD311A3B6828189847AD19013D2B783C
:102010000D3B5A4253413B7580BCB846F0BD091A8E
:102020003B6828189847E2E70368110028009847A2
:10203000F2E7C0461C260010F0B5DE4657464E4675
:102040004546E0B585B017001C0006000D00FFF7FF
:1020500015FB0023314A12184B41802109068B429F
:1020600002D301222E4B52422E4908008A4600F02C
:1020700023FA01906B1C03D1300000F0DBF905005E
:10208000002C26D0284B9846284B1C68002C15D0D5
:10209000002F21D1264F02E02469002C0ED02368A6
:1020A000002BF9D03B68002B01D09C42F4D12000DA
:1020B0002A003100C0472469002CF0D1019B002B7D
:1020C00028D1280005B0F0BCBB46B246A946A046C0
:1020D000F0BD184B9846D7E7154B994602ABDF1D6C
:1020E0000A239B4602E02469002CE7D02368002BDA
:1020F000F9D04B461B68002B01D0A342F3D12A0034
:1021000031002000C0475B460122390020003B70AF
:10211000C047E8E7504600F0BFF9D2E740420F0061
:10212000FFFFFF7F38020020A51F0010FC050020E4
:1021300000060020951F00100A4A1368002B05D1E5
:102140000CE01A001B691032002B07D09842F8D11E
:10215000002902D103691360016170470029FCD096
:102160001060FAE7FC05002010B500F03BF90120F3
:1021700010BDC046F0B5CE46474680B583B06B462D
:102180000600DD1D2870FFF779FA00231A4A12189D
:102190004B41802109068B4202D30122174B524248
:1021A00017490800884600F087F9164B81461C68DD
:1021B000002C14D0144F02E02469002C0FD02368A7
:1021C000002BF9D03B68002B01D09C42F4D12000B9
:1021D00001222900FFF7E6FE2469002CEFD14B46CF
:1021E000002B05D1300003B0C0BCB946B046F0BDED
:1021F000404600F051F9F5E740420F00FFFFFF7F36
:1022000038020020FC0500200006002070B5040004
:1022100000F010F901230100050001222000FFF762
:102220000BFF084B1C68002C06D06368002B05D000
:1022300098472469002CF8D1280070BD2469002C2F
:10224000F3D1F9E7FC050020F0B5002915DD0E4BB0
:102250000D271A680D4B0E4CD3185D426B41451883
:1022600020215B001E5F0478A64207D093691942C3
:10227000FCD101301460A842F5D1F0BD9369194238
:10228000FCD11760F2E7C046440600200080FCBF86
:1022900040060020204B70B504000D1E1E682ADD8C
:1022A000002010211D4B013C1A689369194214D17A
:1022B000013093691942FCD1136823548542F4D14B
:1022C000002E08D050239363516B183B0B401449E8
:1022D0008C466244136028000CE0002E08D0502386
:1022E0009363516B183B0B400D498C46624413605D
:1022F00000280DD070BD002E0AD05022074B1B685D
:102300009A63596B183A0A4005498C4663441A602F
:1023100003204042EEE7C046C805002044060020E6
:1023200034100000064B10B51B68002B06D00021AE
:10233000044A12689163044A1068984710BDC04669
:10234000C805002044060020CC0500200822034BCD
:1023500019688B691A42FCD17047C04644060020B8
:10236000F8B51A4F1A4B3A680500D3185842434142
:10237000184E14331C003368002D02D0002B0FD0F0
:10238000F8BD002BFCD0002120009563FEF7BEFABB
:1023900020001149FEF7F0FB104B35601D60EFE7A0
:1023A0000E4B200019600C493560FEF7C1FA01217F
:1023B0002000FEF7ABFA50223B689A63596B183A3B
:1023C0000A4007498C4663441A60D9E74406002056
:1023D0000080FCBFC805002025230010CC0500208C
:1023E000341000000D4B10B51B780D4B0D4C1B78B5
:1023F0000D4B02211B780D4B00202360FEF76AF97C
:1024000002210120FEF766F9E12120684902FFF769
:1024100083F901210648FFF78FFE10BD64260010E6
:1024200060260010440600205C2600100040034097
:102430002002002010B583070AD00300032102E028
:1024400001330B4205D01A78002AF9D1181A10BDB1
:10245000030019680C4A0D4C8A188A4322420FD196
:102460005968094A04338A188A43224208D15968B4
:10247000054A04338A188A432242F1D000E001332E
:102480001A78002AFBD1E1E7FFFEFEFE8080808003
:10249000F8B5C0460000000001B40248844601BC03
:1024A000604700BF5D01002001B40248844601BCC2
:1024B000604700BF8501002001B40248844601BC8A
:1024C000604700BFC1000020991B0010C51B001011
:1024D000111D0010011F00106D1D0010711E001055
:1024E000391C0010E11B0010011C0010151C00100D
:1024F000110E00101D1C00108D110010611B00102A
:08250000E9080010B10200100F
:102508000A2A2A2A2050414E4943202A2A2A0A0008
:102518000A000000486172647761726520616C612D
:10252800726D20256420616C726561647920636C2A
:1025380061696D65640000004861726420617373AD
:102548006572740052656C6561736500626F6F74C3
:10255800325F77323571303830000000302E31006C
:10256800322E312E300000007069636F00000000C9
:102578005461726566615F32000000004665622042
:10258800203520323032350055415254207374645E
:10259800696E000055415254207374646F7574005D
:1025A8005541525420737464696E202F20737464EB
:1025B8006F75740006005250D3F075424C25001018
:1025C80006005250E182887F5425001006005250C0
:1025D8003ABCA9116425001006005250ABB36053F1
:1025E8006825001006005250BBFF3CB6702500104D
:1025F80006005250861C030278250010060052502F
:102608005422A29D8425001005005250DE65F4680E
:10261800E82700100D0A00000600525053B4F4A138
:10262800A82500100800525012000000080052505F
:0426380092100000FC
:10263C00BC250010C8250010D4250010E025001082
:10264C00EC250010F82500100426001010260010B0
:0C265C00342600102C2600102026001050
:10266800F0B5C646150000B504001E000268EFF379
:10267800108172B61368002BFCD0BFF35F8F042360
:10268800E356002B2DDB2268BFF35F8F002010601C
:1026980081F31088D0221206127852B290469A42DC
:1026A80003D1002080BCB846F0BD00270BE02368AA
:1026B800BFF35F8F1F6081F310882800310000F09E
:1026C80033F80028EDD12268EFF3108172B6136851
:1026D800002BFCD0BFF35F8F23797F2BE7D94346CC
:1026E80002E0D0231B061B6823712368BFF35F8FAA
:1026F80000221A6081F310880120D3E70268EFF303
:10270800108172B61368002BFCD0BFF35F8FFF23D4
:1027180003710368BFF35F8F00221A6081F310888A
:1027280040BF70477047C04601B40248844601BCA8
:10273800604700BF7915001010000000000000007D
:10274800000001000000000000000000000002007E
:10275800000000000000000000000300000000006E
:10276800000000000000FF000000000001B54868FC
:1027780001318E460047704609380149884701BD36
:102788004D0D0010000000000000000000000000D7
:1027980000000000000000004002002000000000CF
:1027A800503300004C330000543300005233000013
:1027B8004D5300004D4300005334000043340000E3
:1027C800492200104D2300109522001061230010AB
:1027D80000000000000100000000000000000000F0
:04000005100001E9FD
:00000001FF
